{
  "contractName": "Transaction",
  "abi": [
    {
      "anonymous": false,
      "inputs": [
        {
          "indexed": false,
          "internalType": "address",
          "name": "from",
          "type": "address"
        },
        {
          "indexed": false,
          "internalType": "string",
          "name": "firstName",
          "type": "string"
        },
        {
          "indexed": false,
          "internalType": "string",
          "name": "lastName",
          "type": "string"
        },
        {
          "indexed": false,
          "internalType": "string",
          "name": "userAddress",
          "type": "string"
        },
        {
          "indexed": false,
          "internalType": "uint256",
          "name": "value",
          "type": "uint256"
        }
      ],
      "name": "AddUser",
      "type": "event"
    },
    {
      "anonymous": false,
      "inputs": [
        {
          "indexed": false,
          "internalType": "address",
          "name": "from",
          "type": "address"
        },
        {
          "indexed": false,
          "internalType": "string",
          "name": "firstName",
          "type": "string"
        },
        {
          "indexed": false,
          "internalType": "string",
          "name": "lastName",
          "type": "string"
        },
        {
          "indexed": false,
          "internalType": "uint256",
          "name": "value",
          "type": "uint256"
        },
        {
          "indexed": false,
          "internalType": "uint256",
          "name": "valueAdded",
          "type": "uint256"
        }
      ],
      "name": "AddValue",
      "type": "event"
    },
    {
      "anonymous": false,
      "inputs": [
        {
          "indexed": false,
          "internalType": "address",
          "name": "from",
          "type": "address"
        },
        {
          "indexed": false,
          "internalType": "string",
          "name": "firstName",
          "type": "string"
        },
        {
          "indexed": false,
          "internalType": "string",
          "name": "lastName",
          "type": "string"
        },
        {
          "indexed": false,
          "internalType": "string",
          "name": "userAddress",
          "type": "string"
        },
        {
          "indexed": false,
          "internalType": "uint256",
          "name": "value",
          "type": "uint256"
        }
      ],
      "name": "EditInfo",
      "type": "event"
    },
    {
      "constant": true,
      "inputs": [
        {
          "internalType": "uint256",
          "name": "",
          "type": "uint256"
        }
      ],
      "name": "userAccounts",
      "outputs": [
        {
          "internalType": "address",
          "name": "",
          "type": "address"
        }
      ],
      "payable": false,
      "stateMutability": "view",
      "type": "function"
    },
    {
      "constant": false,
      "inputs": [
        {
          "internalType": "string",
          "name": "firstName",
          "type": "string"
        },
        {
          "internalType": "string",
          "name": "lastName",
          "type": "string"
        },
        {
          "internalType": "string",
          "name": "userAddress",
          "type": "string"
        }
      ],
      "name": "addUser",
      "outputs": [],
      "payable": false,
      "stateMutability": "nonpayable",
      "type": "function"
    },
    {
      "constant": true,
      "inputs": [],
      "name": "countUsers",
      "outputs": [
        {
          "internalType": "uint256",
          "name": "count",
          "type": "uint256"
        }
      ],
      "payable": false,
      "stateMutability": "view",
      "type": "function"
    },
    {
      "constant": true,
      "inputs": [
        {
          "internalType": "address",
          "name": "_address",
          "type": "address"
        }
      ],
      "name": "getUser",
      "outputs": [
        {
          "internalType": "string",
          "name": "",
          "type": "string"
        },
        {
          "internalType": "string",
          "name": "",
          "type": "string"
        },
        {
          "internalType": "string",
          "name": "",
          "type": "string"
        },
        {
          "internalType": "uint256",
          "name": "",
          "type": "uint256"
        }
      ],
      "payable": false,
      "stateMutability": "view",
      "type": "function"
    },
    {
      "constant": true,
      "inputs": [],
      "name": "getAllUsers",
      "outputs": [
        {
          "internalType": "address[]",
          "name": "",
          "type": "address[]"
        }
      ],
      "payable": false,
      "stateMutability": "view",
      "type": "function"
    },
    {
      "constant": false,
      "inputs": [
        {
          "internalType": "string",
          "name": "firstName",
          "type": "string"
        },
        {
          "internalType": "string",
          "name": "lastName",
          "type": "string"
        },
        {
          "internalType": "string",
          "name": "userAddress",
          "type": "string"
        }
      ],
      "name": "editInfo",
      "outputs": [],
      "payable": false,
      "stateMutability": "nonpayable",
      "type": "function"
    },
    {
      "constant": false,
      "inputs": [
        {
          "internalType": "uint256",
          "name": "value",
          "type": "uint256"
        }
      ],
      "name": "addValue",
      "outputs": [],
      "payable": false,
      "stateMutability": "nonpayable",
      "type": "function"
    }
  ],
  "bytecode": "0x608060405234801561001057600080fd5b506114d3806100206000396000f3fe608060405234801561001057600080fd5b506004361061007d5760003560e01c806395c5fed41161005b57806395c5fed4146102ba578063e2842d79146104a3578063f8fb1d0f14610502578063fc017f25146105205761007d565b80635b9af12b14610082578063616d5058146100b05780636f77926b1461011e575b600080fd5b6100ae6004803603602081101561009857600080fd5b8101908080359060200190929190505050610709565b005b6100dc600480360360208110156100c657600080fd5b81019080803590602001909291905050506109a3565b604051808273ffffffffffffffffffffffffffffffffffffffff1673ffffffffffffffffffffffffffffffffffffffff16815260200191505060405180910390f35b6101606004803603602081101561013457600080fd5b81019080803573ffffffffffffffffffffffffffffffffffffffff1690602001909291905050506109df565b60405180806020018060200180602001858152602001848103845288818151815260200191508051906020019080838360005b838110156101ae578082015181840152602081019050610193565b50505050905090810190601f1680156101db5780820380516001836020036101000a031916815260200191505b50848103835287818151815260200191508051906020019080838360005b838110156102145780820151818401526020810190506101f9565b50505050905090810190601f1680156102415780820380516001836020036101000a031916815260200191505b50848103825286818151815260200191508051906020019080838360005b8381101561027a57808201518184015260208101905061025f565b50505050905090810190601f1680156102a75780820380516001836020036101000a031916815260200191505b5097505050505050505060405180910390f35b6104a1600480360360608110156102d057600080fd5b81019080803590602001906401000000008111156102ed57600080fd5b8201836020820111156102ff57600080fd5b8035906020019184600183028401116401000000008311171561032157600080fd5b91908080601f016020809104026020016040519081016040528093929190818152602001838380828437600081840152601f19601f8201169050808301925050505050505091929192908035906020019064010000000081111561038457600080fd5b82018360208201111561039657600080fd5b803590602001918460018302840111640100000000831117156103b857600080fd5b91908080601f016020809104026020016040519081016040528093929190818152602001838380828437600081840152601f19601f8201169050808301925050505050505091929192908035906020019064010000000081111561041b57600080fd5b82018360208201111561042d57600080fd5b8035906020019184600183028401116401000000008311171561044f57600080fd5b91908080601f016020809104026020016040519081016040528093929190818152602001838380828437600081840152601f19601f820116905080830192505050505050509192919290505050610cce565b005b6104ab610fbc565b6040518080602001828103825283818151815260200191508051906020019060200280838360005b838110156104ee5780820151818401526020810190506104d3565b505050509050019250505060405180910390f35b61050a61104a565b6040518082815260200191505060405180910390f35b6107076004803603606081101561053657600080fd5b810190808035906020019064010000000081111561055357600080fd5b82018360208201111561056557600080fd5b8035906020019184600183028401116401000000008311171561058757600080fd5b91908080601f016020809104026020016040519081016040528093929190818152602001838380828437600081840152601f19601f820116905080830192505050505050509192919290803590602001906401000000008111156105ea57600080fd5b8201836020820111156105fc57600080fd5b8035906020019184600183028401116401000000008311171561061e57600080fd5b91908080601f016020809104026020016040519081016040528093929190818152602001838380828437600081840152601f19601f8201169050808301925050505050505091929192908035906020019064010000000081111561068157600080fd5b82018360208201111561069357600080fd5b803590602001918460018302840111640100000000831117156106b557600080fd5b91908080601f016020809104026020016040519081016040528093929190818152602001838380828437600081840152601f19601f820116905080830192505050505050509192919290505050611057565b005b806000803373ffffffffffffffffffffffffffffffffffffffff1673ffffffffffffffffffffffffffffffffffffffff168152602001908152602001600020600301600082825401925050819055507f8d458522ac17bec1b1dab657470a224bf826b462811963b1464ac686674de261336000803373ffffffffffffffffffffffffffffffffffffffff1673ffffffffffffffffffffffffffffffffffffffff1681526020019081526020016000206000016000803373ffffffffffffffffffffffffffffffffffffffff1673ffffffffffffffffffffffffffffffffffffffff1681526020019081526020016000206001016000803373ffffffffffffffffffffffffffffffffffffffff1673ffffffffffffffffffffffffffffffffffffffff1681526020019081526020016000206003015485604051808673ffffffffffffffffffffffffffffffffffffffff1673ffffffffffffffffffffffffffffffffffffffff168152602001806020018060200185815260200184815260200183810383528781815460018160011615610100020316600290048152602001915080546001816001161561010002031660029004801561090a5780601f106108df5761010080835404028352916020019161090a565b820191906000526020600020905b8154815290600101906020018083116108ed57829003601f168201915b505083810382528681815460018160011615610100020316600290048152602001915080546001816001161561010002031660029004801561098d5780601f106109625761010080835404028352916020019161098d565b820191906000526020600020905b81548152906001019060200180831161097057829003601f168201915b505097505050505050505060405180910390a150565b600181815481106109b057fe5b906000526020600020016000915054906101000a900473ffffffffffffffffffffffffffffffffffffffff1681565b606080606060008060008673ffffffffffffffffffffffffffffffffffffffff1673ffffffffffffffffffffffffffffffffffffffff1681526020019081526020016000206000016000808773ffffffffffffffffffffffffffffffffffffffff1673ffffffffffffffffffffffffffffffffffffffff1681526020019081526020016000206001016000808873ffffffffffffffffffffffffffffffffffffffff1673ffffffffffffffffffffffffffffffffffffffff1681526020019081526020016000206002016000808973ffffffffffffffffffffffffffffffffffffffff1673ffffffffffffffffffffffffffffffffffffffff16815260200190815260200160002060030154838054600181600116156101000203166002900480601f016020809104026020016040519081016040528092919081815260200182805460018160011615610100020316600290048015610b805780601f10610b5557610100808354040283529160200191610b80565b820191906000526020600020905b815481529060010190602001808311610b6357829003601f168201915b50505050509350828054600181600116156101000203166002900480601f016020809104026020016040519081016040528092919081815260200182805460018160011615610100020316600290048015610c1c5780601f10610bf157610100808354040283529160200191610c1c565b820191906000526020600020905b815481529060010190602001808311610bff57829003601f168201915b50505050509250818054600181600116156101000203166002900480601f016020809104026020016040519081016040528092919081815260200182805460018160011615610100020316600290048015610cb85780601f10610c8d57610100808354040283529160200191610cb8565b820191906000526020600020905b815481529060010190602001808311610c9b57829003601f168201915b5050505050915093509350935093509193509193565b610cd6611351565b604051806080016040528085815260200184815260200183815260200160008152509050806000803373ffffffffffffffffffffffffffffffffffffffff1673ffffffffffffffffffffffffffffffffffffffff1681526020019081526020016000206000820151816000019080519060200190610d55929190611379565b506020820151816001019080519060200190610d72929190611379565b506040820151816002019080519060200190610d8f929190611379565b506060820151816003015590505060013390806001815401808255809150509060018203906000526020600020016000909192909190916101000a81548173ffffffffffffffffffffffffffffffffffffffff021916908373ffffffffffffffffffffffffffffffffffffffff160217905550507f9ca8fc13dd74c81e06cc596fef9c400d86068715f27cf7d4e0482cbb49c1be71338585856000604051808673ffffffffffffffffffffffffffffffffffffffff1673ffffffffffffffffffffffffffffffffffffffff168152602001806020018060200180602001858152602001848103845288818151815260200191508051906020019080838360005b83811015610eaa578082015181840152602081019050610e8f565b50505050905090810190601f168015610ed75780820380516001836020036101000a031916815260200191505b50848103835287818151815260200191508051906020019080838360005b83811015610f10578082015181840152602081019050610ef5565b50505050905090810190601f168015610f3d5780820380516001836020036101000a031916815260200191505b50848103825286818151815260200191508051906020019080838360005b83811015610f76578082015181840152602081019050610f5b565b50505050905090810190601f168015610fa35780820380516001836020036101000a031916815260200191505b509850505050505050505060405180910390a150505050565b6060600180548060200260200160405190810160405280929190818152602001828054801561104057602002820191906000526020600020905b8160009054906101000a900473ffffffffffffffffffffffffffffffffffffffff1673ffffffffffffffffffffffffffffffffffffffff1681526020019060010190808311610ff6575b5050505050905090565b6000600180549050905090565b826000803373ffffffffffffffffffffffffffffffffffffffff1673ffffffffffffffffffffffffffffffffffffffff16815260200190815260200160002060000190805190602001906110ac9291906113f9565b50816000803373ffffffffffffffffffffffffffffffffffffffff1673ffffffffffffffffffffffffffffffffffffffff16815260200190815260200160002060010190805190602001906111029291906113f9565b50806000803373ffffffffffffffffffffffffffffffffffffffff1673ffffffffffffffffffffffffffffffffffffffff16815260200190815260200160002060020190805190602001906111589291906113f9565b507f623b06d69317a5b95a9030ff38fe7686b239f929e3b5b943f5f29d7e99c57c0e338484846000803373ffffffffffffffffffffffffffffffffffffffff1673ffffffffffffffffffffffffffffffffffffffff16815260200190815260200160002060030154604051808673ffffffffffffffffffffffffffffffffffffffff1673ffffffffffffffffffffffffffffffffffffffff168152602001806020018060200180602001858152602001848103845288818151815260200191508051906020019080838360005b83811015611240578082015181840152602081019050611225565b50505050905090810190601f16801561126d5780820380516001836020036101000a031916815260200191505b50848103835287818151815260200191508051906020019080838360005b838110156112a657808201518184015260208101905061128b565b50505050905090810190601f1680156112d35780820380516001836020036101000a031916815260200191505b50848103825286818151815260200191508051906020019080838360005b8381101561130c5780820151818401526020810190506112f1565b50505050905090810190601f1680156113395780820380516001836020036101000a031916815260200191505b509850505050505050505060405180910390a1505050565b6040518060800160405280606081526020016060815260200160608152602001600081525090565b828054600181600116156101000203166002900490600052602060002090601f016020900481019282601f106113ba57805160ff19168380011785556113e8565b828001600101855582156113e8579182015b828111156113e75782518255916020019190600101906113cc565b5b5090506113f59190611479565b5090565b828054600181600116156101000203166002900490600052602060002090601f016020900481019282601f1061143a57805160ff1916838001178555611468565b82800160010185558215611468579182015b8281111561146757825182559160200191906001019061144c565b5b5090506114759190611479565b5090565b61149b91905b8082111561149757600081600090555060010161147f565b5090565b9056fea265627a7a723158205edcf6486f52a312b12054c00fa470681cb96582069d75d4bffca285dede9cae64736f6c63430005100032",
  "source": "pragma solidity >=0.4.21 <0.7.0;\r\n\r\ncontract Transaction {\r\n    struct User {\r\n        string firstName;\r\n        string lastName;\r\n        string userAddress;\r\n        uint256 value; // store the smallest value (cents) *$1 = 100\r\n    }\r\n\r\n    // mapping from owner wallet address to the user account\r\n    mapping(address => User) userList;\r\n\r\n    // store all added wallet addresses\r\n    address[] public userAccounts;\r\n\r\n    // create events for each function for logging service\r\n    event AddUser(address from, string firstName, string lastName, string userAddress, uint256 value);\r\n\r\n    event AddValue(address from, string firstName, string lastName, uint256 value, uint valueAdded);\r\n\r\n    event EditInfo(address from, string firstName, string lastName, string userAddress, uint256 value);\r\n\r\n    // add user to contract\r\n    function addUser(string memory firstName, string memory lastName, string memory userAddress) public {\r\n        User memory newUser = User(firstName, lastName, userAddress, 0);\r\n        userList[msg.sender] = newUser;\r\n        userAccounts.push(msg.sender);\r\n        emit AddUser(msg.sender, firstName, lastName, userAddress, 0);\r\n    }\r\n\r\n    // get the total user count\r\n    function countUsers() public view returns (uint256 count) {\r\n        return userAccounts.length;\r\n    }\r\n\r\n    // retrieve a user detail\r\n    function getUser(address _address) public view returns (\r\n        string memory,\r\n        string memory, string memory,\r\n        uint256\r\n        ) {\r\n            return (\r\n                userList[_address].firstName,\r\n                userList[_address].lastName,\r\n                userList[_address].userAddress,\r\n                userList[_address].value\r\n                );\r\n    }\r\n\r\n    // retrieve all user wallet addresses\r\n    function getAllUsers() public view returns (address[] memory) {\r\n        return userAccounts;\r\n    }\r\n\r\n    // update an user infomation\r\n    function editInfo(string memory firstName, string memory lastName, string memory userAddress) public {\r\n        userList[msg.sender].firstName = firstName;\r\n        userList[msg.sender].lastName = lastName;\r\n        userList[msg.sender].userAddress = userAddress;\r\n        emit EditInfo(msg.sender, firstName, lastName, userAddress, userList[msg.sender].value);\r\n    }\r\n\r\n    // add value to the added user\r\n    function addValue(uint256 value) public {\r\n        userList[msg.sender].value += value;\r\n        emit AddValue(msg.sender, userList[msg.sender].firstName, userList[msg.sender].lastName, userList[msg.sender].value, value);\r\n    }\r\n}",
  "sourcePath": "D:\\Documents\\Projects\\TransactionsV4\\contracts\\Transaction.sol",
  "compiler": {
    "name": "solc",
    "version": "0.5.16+commit.9c3226ce.Emscripten.clang"
  },
  "schemaVersion": "3.0.23",
  "updatedAt": "2020-03-08T15:53:01.320Z",
  "networkType": "ethereum",
  "devdoc": {
    "methods": {}
  },
  "userdoc": {
    "methods": {}
  }
}